:020000040800F2
:10000000E00500209D2C0008CD2C0008D12C000814
:10001000D52C0008D92C0008DD2C000800000000B9
:10002000000000000000000000000000E12C0008BB
:10003000E52C000800000000E92C0008ED2C000869
:10004000F12C0008F52C0008F92C0008FD2C000804
:10005000012D0008052D0008092D00080D2D0008B0
:10006000112D0008152D0008192D00081D2D000860
:10007000212D0008252D0008292D00082D2D000810
:10008000312D0008352D0008392D00083D2D0008C0
:10009000412D0008452D0008492D0008770500086E
:1000A0004D2D0008512D0008552D0008592D000830
:1000B0005D2D0008612D0008652D0008692D0008E0
:1000C0006D2D0008712D0008752D0008792D000890
:1000D0007D2D0008812D0008852D0008892D000840
:1000E000A90500088D2D0008912D0008952D000808
:1000F000992D00089D2D0008A12D0008A52D0008B0
:10010000A92D0008AD2D0008B12D0008B52D00085F
:10011000B92D0008650D0008BD2D0008C12D00088F
:10012000C52D0008C92D0008CD2D0008D12D0008CF
:10013000D52D0008D92D0008DD2D0008E12D00087F
:10014000E52D0008E92D0008ED2D0008F12D00082F
:10015000F52D0008F92D0008FD2D0008012E0008DE
:10016000052E0008092E00080D2E0008112E00088B
:10017000152E0008192E00081D2E0008212E00083B
:10018000252E0008292E00082DE9F84300F0A6F9D5
:1001900001F0DEF800F05AF900F02CFD01F0F1F961
:1001A00001F096FA642001F09DF800F021FADFF8E2
:1001B000344B4FF47F45256001E000203070DFF8BC
:1001C000286B3078002838D0DFF8207B386800288A
:1001D00028D1DFF81C8B98F80000002803D098F88D
:1001E000000002281ED12560206850F00100206028
:1001F0005FF47F0001F098F8B4A27421022001F0AE
:1002000018F9B3A27421912001F013F95FF47F0073
:1002100001F092F8AFA000F0E1FF0120386001206A
:1002200088F80000002030700020DFF8C81A08703D
:100230000020DFF8C41A08703AE0DFF8C06A3078AE
:10024000002835D0DFF8A47A3868002826D1DFF8F6
:10025000A08A98F80000002803D098F80000012830
:100260001CD12560206850F080002060FF2001F044
:100270005BF896A27421912001F0DBF894A274211E
:10028000022001F0D6F8FF2001F056F892A000F00D
:10029000A5FF03203860022088F80000002030709D
:1002A0000020DFF8501A08700020DFF84C1A0870A0
:1002B00000F0B6FADFF83C6A307800285ED0DFF84C
:1002C0002C7A3868002859D1DFF8248A98F8000081
:1002D000012853D15FF47F0001F026F8DFF8209A5F
:1002E000D9F80000401CC9F80000D9F800000A281D
:1002F00002DB0020C9F8000000203860002088F8E8
:100300000000D9F800000100C9B24FF4967001F066
:1003100008FA4FF4967001F02DFAC9F80000D9F8E8
:1003200000203032D2B274213A2001F02EF84FF47E
:10033000FA7000F0D7FF0520DFF8C8190860DFF871
:10034000C8190860DFF8C4190860DFF8C41908602C
:1003500000F04EF900200CE0DFF8B829282303FB59
:1003600000F31A44002342F82130491C0A29F3DB28
:10037000401C0A28BFF621AF0021F7E7DFF87869B3
:10038000307800283FF41BAFDFF860793868002828
:100390007FF415AFDFF8588998F8000002287FF441
:1003A0000EAFFF2000F0C0FFDFF86C99D9F8000015
:1003B000401CC9F80000D9F800000A2802DB002020
:1003C000C9F8000000203860002088F8000040F2E2
:1003D0002D17D9F800000100C9B2380001F0A1F9C9
:1003E000380001F0C7F9C9F80000D9F80020303210
:1003F000D2B27421582000F0C8FF4FF4FA7000F018
:1004000071FF0520DFF8FC180860DFF8FC180860B1
:10041000DFF8F8180860DFF8F818086000F0E8F86E
:1004200000200CE0DFF8EC28282303FB00F31A443B
:10043000002342F82130491C0A29F3DB401C0A281A
:1004400001DA0021F8E700203070B8E6DFF8CC08C8
:10045000016851F080010160DFF8C408016851F4BF
:1004600080410160DFF8BC08016889B20160DFF8F3
:10047000B808016851F077010160DFF8B008016841
:1004800051F440710160DFF8A8180A6852F4407214
:100490000A60DFF8A028136853F400031360DFF844
:1004A0009828136843F4EE4353F070031360026816
:1004B00052F460420260086850F460400860DFF85F
:1004C0000C0D016851F48071016070472A00000032
:1004D000200000003100000032000000DFF83C087E
:1004E000016851F04001016045F25551DFF84C2898
:1004F00013680B431360DFF8482813681B0A1B02BC
:100500001360DFF84028136819431160016851F047
:1005100080010160DFF80C180A6892B20A60DFF807
:1005200028180A6892B20A60016851F0200101603F
:10053000DFF818180A6852F480220A60DFF81018F1
:100540000A6832F400720A60DFF808180A6852F488
:1005500080220A60016851F480710160DFF8F807B9
:10056000DFF8F8170A6802400A60DFF8F01C0A6832
:10057000104008607047DFF8E8070168C90507D533
:10058000016851F4807101600121DFF85C2711706E
:100590000168890507D5016851F4007101600120E7
:1005A000DFF8501708707047DFF8B40701680904D6
:1005B00007D5016851F4004101600121DFF83C27B3
:1005C00011700168490407D5016851F48041016048
:1005D0000121DFF8242711700168890407D501681B
:1005E00051F4005101600120DFF8741C087070475D
:1005F0002DE9F0414FF47F40DFF8E8160860DFF89E
:10060000D04B200000F089FFDFF8C80B00F098FE07
:10061000200000F085FE002000F086FEDFF8B82BF9
:100620000121002000F08AFF002000F081FEDFF8A9
:10063000D0464FF4967001F09DF82060DFF8D85650
:1006400040F22D16300001F095F82860012713E0E4
:100650005122092000FB07F01330010089B223204A
:1006600000F002FF51221C21092000FB07F01A3084
:1006700080B200F016FF7F1C0B2FE9DB63A20F2175
:10068000142000F0D6FE62A73A004121142000F0A9
:10069000D0FE0FF2801842466921142000F0C9FEF6
:1006A0003A000F214B2000F0C4FE42460F21732078
:1006B00000F0BFFE58A27421462000F0BAFEFF20D1
:1006C00000F032FEDFF89C7B3A007421692000F0D4
:1006D000B0FE28680100C9B2300001F022F83000F5
:1006E00001F048F802003032D2B27421582000F0F4
:1006F0004CFEDFF81C562A683032D2B274216F20CB
:1007000000F043FEDFF8FC6532683032D2B274216B
:10071000802000F03AFE0FF2041842467421912026
:1007200000F087FE5FF47F0000F0FEFD3A007421C8
:100730000C2000F07EFE20680100C9B24FF49670D4
:1007400000F0EFFF4FF4967001F014F83030020023
:10075000D2B274213A2000F018FE2A683032D2B2A8
:100760007421122000F011FE32683032D2B27421AE
:10077000242000F00AFE42467421022000F059FEB7
:10078000002000F0D9FD0623062247214E2000F06C
:10079000A4FEBDE8F08110B5DFF8D84A206850F417
:1007A000007020601E2000F09DFD206830F4007075
:1007B000206010BD38B5DFF8C00A046814F47874FE
:1007C000200080B2B0F5787F0FD1DFF8B05A2878DA
:1007D000002802D1200080B216E00A2000F082FD3D
:1007E00000202870200080B20EE0DFF8901A087810
:1007F000002802D04FF4787006E0012008700A202B
:1008000000F070FD200080B232BD0000300000001A
:1008100035000000390000005653000020000000A1
:100820002DE9F041FFF7C6FFB0F5F07F0FD0B0F52E
:10083000387F5DD0B0F5587F00F0F980B0F5687F63
:1008400000F0A780B0F5707F00F04181CAE198A068
:1008500000F0C4FCDFF894040168012923D15FF49F
:100860007F0000F061FD5FF47F0000F065FDDFF8C0
:10087000A0442068012809DA002020602268303274
:10088000D2B27421122000F080FD30E02068401EBA
:100890002060FFF780FF22683032D2B2742112202C
:1008A00000F073FD23E00068032820D1FF2000F052
:1008B0003BFDFF2000F040FDDFF84C44206801289C
:1008C00009DA0020206022683032D2B274216F2011
:1008D00000F05BFD0BE0FFF75EFF2068401E20602C
:1008E00022683032D2B274216F2000F04EFD79E1DF
:1008F000BDA000F073FCDFF8F4030168012923D1E7
:100900005FF47F0000F010FD5FF47F0000F014FD45
:10091000DFF8FC432068092809DB092020602268F1
:100920003032D2B27421122000F02FFD30E0FFF7F8
:1009300032FF2068401C206022683032D2B274211D
:10094000122000F022FD23E00068032820D1FF20C0
:1009500000F0EAFCFF2000F0EFFCDFF8AC43206879
:10096000092809DB0920206022683032D2B27421C4
:100970006F2000F00AFD0BE0FFF70DFF2068401C20
:10098000206022683032D2B274216F2000F0FDFC6A
:1009900028E196A000F022FCD4480168012922D168
:1009A0005FF47F0000F0C0FC5FF47F0000F0C4FC47
:1009B000D44C2068012809DA0020206022683032F7
:1009C000D2B27421242000F0E0FC2FE0FFF7E3FE18
:1009D0002068401E206022683032D2B27421242068
:1009E00000F0D3FC22E0006803281FD1FF2000F0B4
:1009F0009BFCFF2000F0A0FCC44C2068012809DA11
:100A00000020206022683032D2B27421802000F0B1
:100A1000BCFC0BE0FFF7BFFE2068401E2060226890
:100A20003032D2B27421802000F0AFFCDAE070A046
:100A300000F0D4FBAD480168012922D15FF47F00AA
:100A400000F072FC5FF47F0000F076FCAD4C206893
:100A5000092809DB0920206022683032D2B27421D3
:100A6000242000F092FC31E0FFF795FE2068401C46
:100A7000206022683032D2B27421242000F085FC3C
:100A800024E00068032821D1FF2000F04DFCFF2066
:100A900000F052FC9D4C206809280BDB09202060E7
:100AA00022683032D2B27421802000F06EFC0DE05A
:100AB0006C000000FFF76FFE2068401C2060226879
:100AC0003032D2B27421802000F05FFC8AE084A032
:100AD00000F084FB854C2068012841D1DFF8A05745
:100AE0002826DFF8A077DFF82C823868704340446E
:100AF000296850F82100012805D10120206001203B
:100B00007B4908706EE0FFF746FE642000F0EAFBC8
:100B1000FFF741FE642000F0E5FBFFF73CFE0923F0
:100B20000922296809204143153189B2D7F800C04C
:100B3000092000FB0CFC1CF1200C604680B200F088
:100B4000CCFC386806FB00F608EB06002968012299
:100B500040F821200020206001206549087041E014
:100B6000206803283ED1694D674E2827DFF8A4810D
:100B7000306878434044296850F82100012805D1A5
:100B80000320206002205A4908702BE0FFF703FE83
:100B9000642000F0A7FBFFF7FEFD642000F0A2FB3D
:100BA000FFF7F9FD0923092229680920414315317E
:100BB00089B2D6F800C0092000FB0CFC1CF1200C07
:100BC000604680B200F089FC306807FB00F708EB54
:100BD00007002968012240F821200020206002201F
:100BE00043490870BDE8F081720000007500000004
:100BF0006400000080B54948016851F004010160BB
:100C0000DFF884160A6852F000720A60DFF87C167A
:100C10000A6852F040720A60DFF874160A680A60C7
:100C2000DFF870160A6852F080720A60DFF8681602
:100C30000A6852F400220A60016851F0080101605C
:100C4000DFF85806016851F020010160DFF8500616
:100C5000016851F030010160DFF84806016851F485
:100C600000610160DFF84006016851F48011016005
:100C70004FF4964000F0BDFADFF830160A884EF6C1
:100C8000FF7002400A80DFF82816088850F4805070
:100C900008800A884FF6FF3002400A80088850F02A
:100CA00004000880088850F008000880DFF8042657
:100CB00013884CF6FF70034013800020DFF8F825FE
:100CC0001080088850F020000880DFF800050268D6
:100CD00052F400120260088850F40050088001BDF0
:100CE0007000000014180240D8010020C00100204C
:100CF000DD010020D9010020DB010020DC01002003
:100D0000B801002004000020080000200C00002092
:100D10000000002028000020BC01002030380240E4
:100D200044380240001C0240103801400C3C014095
:100D3000003C014000E100E014380140001802408E
:100D400004180240081802400C1C02400014024023
:100D50000414024008140240FF03F0FF0020024088
:100D6000143C01402DE9F041DFF850050088800671
:100D700040F12282DFF848050488E405E40D2000F4
:100D800080B26C284CD1DFF83C050168012921D1E3
:100D9000FF2000F0C9FAFF2000F0CEFADFF8E4549B
:100DA0002868012809DA002028602A683032D2B287
:100DB00074216F2000F0E9FA32E02868401E2860B4
:100DC000FFF7E9FC2A683032D2B274216F2000F0BC
:100DD000DCFA25E00068032822D15FF47F0000F0F0
:100DE000A3FA5FF47F0000F0A7FADFF8DC5428686C
:100DF000012809DA002028602A683032D2B2742132
:100E0000122000F0C2FA0BE0FFF7C5FC2868401E74
:100E100028602A683032D2B27421122000F0B5FA6C
:100E2000200080B272284CD1DFF8980401680129B3
:100E300021D1FF2000F078FAFF2000F07DFADFF8E2
:100E400044542868092809DB092028602A683032C0
:100E5000D2B274216F2000F098FA32E02868401C6A
:100E60002860FFF798FC2A683032D2B274216F20D4
:100E700000F08BFA25E00068032822D15FF47F00A0
:100E800000F052FA5FF47F0000F056FADFF83854B1
:100E90002868092809DB092028602A683032D2B284
:100EA0007421122000F071FA0BE0FFF774FC28683F
:100EB000401C28602A683032D2B27421122000F01F
:100EC00064FA200080B275284CD1DFF8F80301687D
:100ED000012921D1FF2000F027FAFF2000F02CFA91
:100EE000DFF89C532868012809DA002028602A6866
:100EF0003032D2B27421802000F047FA32E0FFF79E
:100F00004AFC2868401E28602A683032D2B2742118
:100F1000802000F03AFA25E00068032822D15FF42F
:100F20007F0000F001FA5FF47F0000F005FADFF8BF
:100F30009C532868012809DA002028602A6830328A
:100F4000D2B27421242000F020FA0BE0FFF723FC3A
:100F50002868401E28602A683032D2B274212420CA
:100F600000F013FA200080B2642847D1D548016808
:100F7000012920D1FF2000F0D7F9FF2000F0DCF993
:100F8000BF4D2868092809DB092028602A6830320B
:100F9000D2B27421802000F0F8F92FE0FFF7FBFBBC
:100FA0002868401C28602A683032D2B27421802020
:100FB00000F0EBF922E0006803281FD1FF2000F0C9
:100FC000B3F9FF2000F0B8F9C04D2868092809DB03
:100FD000092028602A683032D2B27421242000F01F
:100FE000D4F90BE0FFF7D7FB2868401C28602A687B
:100FF0003032D2B27421242000F0C7F9200080B230
:10100000702840F09380AF4C2068012844D12825F7
:10101000AF4E9B4FDFF86C82D8F800006843304435
:10102000396850F82100012805D1012020600120F5
:10103000A8490870C0E0FFF7AEFB642000F052F949
:10104000FFF7A9FB642000F04DF9FFF7A4FBFF2098
:1010500000F072F90923092239680920414315314A
:1010600089B2D8F800C0092000FB0CFC1CF1200C50
:10107000604680B200F031FAD8F8000005FB00F5B8
:1010800006EB05003968012240F82120002020608D
:101090000120904908708FE02068032840F08C8080
:1010A00028258B4E894FDFF82082D8F8000068434E
:1010B0003044396850F82100012805D10320206010
:1010C00002208449087077E0FFF765FB642000F098
:1010D00009F9FFF760FB642000F004F9FFF75BFB00
:1010E0005FF47F0000F028F90923092239680920FC
:1010F0004143153189B2D8F800C0092000FB0CFC2F
:101100001CF1200C604680B200F0E7F9D8F800002E
:1011100005FB00F506EB05003968012240F82120A7
:101120000020206002206B49087045E0200080B25A
:1011300031281ED168484FF47F410160016851F0A9
:1011400001010160FF2000F0EFF847A274210220A6
:1011500000F06FF945A27421912000F06AF9FF2098
:1011600000F0EAF801205749086001205949087049
:1011700022E0A4B2322C1FD157484FF47F410160C6
:10118000016851F0800101605FF47F0000F0CCF84D
:1011900036A27421022000F04CF935A2742191206E
:1011A00000F047F95FF47F0000F0C6F803204549DE
:1011B0000860022047490870BDE8F0813F4909886E
:1011C0000906FBD5C0B23E490880704704E100E043
:1011D00000FFFF001C000020AC2C000810B504002C
:1011E00003E02078FFF7EAFF641C20780028F8D19C
:1011F00010BD10B40021394A002100212C4B198860
:10120000090405D519214A434000B2FBF0F204E07D
:1012100019214A438000B2FBF0F26420B2FBF0F1E6
:1012200009010C002409642000FB14221888000422
:1012300008D5D00032306422B0FBF2F010F0070085
:10124000014307E0100132306422B0FBF2F010F0ED
:101250000F0001432248018010BC70470C2002405F
:10126000DA010020C42C0008200000002A00000041
:10127000000000001414024010200240DE01002093
:10128000040000200000002000080240080802407E
:10129000040802400C08024024080240000C0240EE
:1012A000080C0240200C0240403802400C10014063
:1012B0000C500040105000401450004000500040BE
:1012C00004500040C0010020080000200C00002055
:1012D00028000020DD0100201418024080DE80027A
:1012E0000850004038B50400002504E04FF47A703F
:1012F00000F008F86D1C2800210080B289B28842F5
:10130000F4D331BD81B080B211214843009002E096
:101310000098401E009000980028F9D101B0704755
:10132000DFF8001208607047DFF8FC1108607047B2
:10133000DFF8F81108607047DFF8F41108607047B3
:10134000DFF8F01108607047DFF8E80100687047C7
:1013500010B5DFF8D001002101600068DFF8D0117E
:1013600008607FF07F44DFF8C00104600068DFF8A8
:10137000BC110860DFF8C001DFF8B811086000F0A8
:101380001FFB200000F0C9F810BD2DE9F84315003F
:10139000DFF8A0412268928812FA80F2A02A46DA89
:1013A0002268D2885218531E9BB222689288121863
:1013B000521E92B289B280B200F0F8FB2068808899
:1013C000082802DA2068868800E0082600F017FA6C
:1013D000002700E07F1C38002168098980B288421C
:1013E00023D2206801682A00D2B2206800894243D3
:1013F00012FA87F011F800805FF00009300080B227
:101400008145E7DA5FEA086005D4DFF81801006873
:1014100000F0FAF904E0DFF81001006800F0F4F9D8
:101420005FEA480819F10109E8E700F0FEF9BDE8B4
:10143000F183F8B504000D001600002710E03278A3
:10144000290089B23B009BB2DFF8E8000068808881
:10145000434313FA84F080B2FFF797FF761C7F1C9A
:1014600030780028EBD1F1BD38B50B0014009BB2E9
:10147000221892B2190089B280B200F097FB00F0F6
:10148000BEF9002504E02948006800F0BDF96D1C94
:101490002800210080B289B28842F4D300F0C5F957
:1014A00031BD38B5140063189BB2020092B289B204
:1014B00080B200F07BFB00F0A2F9002504E01B489D
:1014C000006800F0A1F96D1C2000290080B289B2EB
:1014D0008842F4D200F0A9F931BD70B514001D00A6
:1014E0006A18531E9BB22218521E92B289B280B261
:1014F00000F05CFB00F083F9002604E00C48006873
:1015000000F082F9761C210089B2280080B24143A4
:101510008E42F3D300F089F970BD80B500F08EFBE8
:1015200001BD0000C8010020D0010020D40100202E
:10153000CC010020C401002010000020F8B50400F8
:101540000D001600FFF700FF0700FFF7FDFE320059
:10155000F988491C14FB01F189B2808815FB00F061
:1015600080B2FFF766FFF1BD96490A889207FBD566
:10157000954AC0B210800888C007FCD51088C0B258
:10158000704730B49148016851F48041016090483F
:10159000016851F4807101608E48016851F48071D6
:1015A00001608D490A6832F010020A608B4A1368A4
:1015B00053F4007313608A4B1C6834F440741C604D
:1015C000046854F0010404600C68640864000C6052
:1015D000146854F0020414601C68A408A4001C6081
:1015E000046854F0080404600C6834F002040C60D1
:1015F000146854F0080414601C6854F008041C605B
:10160000784C256855F050052560056855F0200593
:1016100005600D6835F004050D60156855F020056E
:1016200015601D6855F020051D60256855F4A065FE
:101630002560056855F080050560086830F00800F1
:101640000860106850F080001060186850F080004A
:101650001860206850F4A04020606349088850F06A
:101660000400088008884004400C08800A884FF273
:10167000FF7002400A80088850F4007008800888D3
:1016800050F4807008800A884FF67F7002400A800C
:10169000088850F020000880088850F00200088078
:1016A000088850F001000880088850F04000088049
:1016B00030BC704710B54D4C216849084900216085
:1016C000C0B2FFF751FF206850F00100206010BD4C
:1016D00038B50025002000200120444C216851F03D
:1016E000100121602168490849002160C0B2FFF75C
:1016F0003BFF2800C0B2FFF737FF206850F0010021
:10170000206005202168490849002160C0B2FFF728
:101710002BFFFF20FFF728FF206850F0010020601A
:1017200031BD7CB504000D0041F288300620FFF782
:10173000C1FF02208DF800006E46200000B20012AA
:101740007070B470F570294C20684008400020602B
:101750009DF80000FFF708FF7078FFF705FFB078ED
:10176000FFF702FFF078FFF7FFFE206850F001005E
:10177000206073BD38B5040041F288300420FFF7C3
:1017800099FF03208DF800006D46200000B2001282
:101790006870AC70154C20684008400020609DF8CF
:1017A0000000FFF7E1FE6878FFF7DEFEA878FFF79C
:1017B000DBFEFF20FFF7D8FE216851F00101216018
:1017C000C0B232BD083800400C38004040380240FA
:1017D000303802400020024004200240082002402D
:1017E0000C2002402020024000380040142002401B
:1017F0005FF0C04108707047E6490870704780B5D7
:101800002C20FFF7F5FF01BD10B504002000000CEF
:10181000C0B2FFF7F1FF2000000AC0B2FFF7ECFFF3
:101820002000C0B2FFF7E8FF10BD80B50020FFF731
:10183000DFFF01BD3EB50121382000F019FA02207A
:101840008DF8040003208DF8050000208DF80600B7
:1018500000208DF807004CF203000090CE4C694642
:10186000200000F025FA0C220E21200000F074FA6E
:101870000C220F21200000F06FFA0C220021200022
:1018800000F06AFA0C220121200000F065FA4FF402
:10189000F0600090C14D6946280000F009FA0C2262
:1018A0000721280000F058FA0C220821280000F037
:1018B00053FA0C220921280000F04EFA0C220A21CA
:1018C000280000F049FAB020009002208DF80400B2
:1018D00003208DF8050000208DF8060000208DF80B
:1018E00007006946200000F0E3F90C2204212000E3
:1018F00000F032FA0C220521200000F02DFA0C2213
:101900000721200000F028FA01200090A44C69462D
:10191000200000F0CDF90C220021200000F01CFA7C
:101920008220009001208DF8040002208DF805002F
:1019300000208DF8060000208DF807006946200081
:1019400000F0B6F937BD80B596B00121012000F056
:101950009DF90320009003200190032002900020B5
:10196000039002200490022005905FF080500690C2
:1019700000200790002008900020099000200A9085
:1019800000200B9000200C9000200D9000200E9065
:1019900000200F904FF480501090002011900020F4
:1019A000129000201390684614906846159007A87E
:1019B00000F0FCF90121002000F07DFA17B000BD15
:1019C00010B5FFF737FFFFF7BEFF764C8020208071
:1019D000022020800A2000F08DFA0220724908803F
:1019E0000A2000F087FA02202080322000F082FADC
:1019F0000120FFF7FDFE322000F07CFA1120FFF7F6
:101A0000F7FE782000F076FA2620FFF7F1FE04209A
:101A1000FFF7F2FEB120FFF7EBFE0A20FFF7ECFE26
:101A20001420FFF7E9FEC020FFF7E2FE0820FFF7D1
:101A3000E3FE0020FFF7E0FEC120FFF7D9FE0520FE
:101A4000FFF7DAFEC520FFF7D3FE3820FFF7D4FEFC
:101A50003520FFF7D1FE3A20FFF7CAFE0620FFF738
:101A6000CBFE2A20FFF7C4FE0020FFF7C5FE0020B2
:101A7000FFF7C2FE0020FFF7BFFE7F20FFF7BCFE8E
:101A80002B20FFF7B5FE0020FFF7B6FE0020FFF782
:101A9000B3FE0020FFF7B0FE9F20FFF7ADFE36201B
:101AA000FFF7A6FE7020FFF7A7FEB720FFF7A0FE06
:101AB0000020FFF7A1FEF220FFF79AFE0120FFF7BA
:101AC0009BFEE020FFF794FE3F20FFF795FE2220CB
:101AD000FFF792FE2020FFF78FFE3020FFF78CFEED
:101AE0002920FFF789FE0C20FFF786FE4E20FFF726
:101AF00083FEB720FFF780FE3C20FFF77DFE192014
:101B0000FFF77AFE2220FFF777FE1E20FFF774FE14
:101B10000220FFF771FE0120FFF76EFE0020FFF7A5
:101B20006BFEE120FFF764FE0020FFF765FE1B203F
:101B3000FFF762FE1F20FFF75FFE0F20FFF75CFE3E
:101B40001620FFF759FE1320FFF756FE3120FFF74E
:101B500053FE8420FFF750FE4320FFF74DFE062082
:101B6000FFF74AFE1D20FFF747FE2120FFF744FE46
:101B70003D20FFF741FE3E20FFF73EFE3F20FFF7EE
:101B80003BFE2920FFF734FE0121002000F040F841
:101B900010BD000001000060000C02400010024077
:101BA00000140240181402401A140240F8B5040050
:101BB0000D0016001F002A20FFF71AFE300080B229
:101BC000A12800DBA026380080B2812800DB802716
:101BD0000020FFF711FE2000C0B2FFF70DFE00202D
:101BE000FFF70AFE3000C0B2FFF706FE2B20FFF71A
:101BF000FFFD0020FFF700FE2800C0B2FFF7FCFD4C
:101C00000020FFF7F9FD3800C0B2FFF7F5FDF1BD88
:101C100070B505000C0020263620FFF7E9FDA4B2C0
:101C2000002C01D056F08006ADB2002D01D056F048
:101C300040063000C0B2FFF7DFFD70BD70B5040094
:101C40008023A02200210020FFF7B0FFFFF7D7FD7F
:101C5000002606E02000FFF7D7FD6D1CA02DF9D36C
:101C6000761C802E01D20025F8E7FFF7DEFD70BD5F
:101C7000C9B2002904D00C490A681043086004E086
:101C800009490A6832EA000008607047C9B20029B1
:101C900004D006490A681043086004E003490A6852
:101CA00032EA00000860704730380240383802409D
:101CB000F0B4002200220022002349E0012414FA9B
:101CC00003F20D681540954241D1032502681E00BC
:101CD000F6B2760015FA06F6B243026006680F798E
:101CE0001A00D2B2520097403E4306600A79012A98
:101CF00002D00A79022A1AD182681E00F6B2760052
:101D000015FA06F6B243826086684F791A00D2B29D
:101D1000520097403E43866042689C4032EA040489
:101D2000446042688C799C40A4B222434260C468FB
:101D30001A00D2B25200954034EA0505C560C46865
:101D4000CD791A00D2B2520095402C43C4605B1C7E
:101D5000102BB3D3F0BC704770B400230023D2B271
:101D600011F00703DBB29B009A400B009BB2DB1023
:101D700000EB83040B009BB2DB1000EB83031D6AB6
:101D80000F2611F00703DBB29B009E40B54325628E
:101D90000B009BB2DB1000EB83031B6A1A4389B272
:101DA000C91000EB8100026270BC704710B40021C2
:101DB000002100215FF02042016852F82130DFF855
:101DC00028110B40446881680C43C1680C430169C9
:101DD0000C4341690C4381690C43C1690C43016A9E
:101DE0000C43416A0C43816A0C43C16A0C43016B8A
:101DF0000C432343016842F821308168082907D148
:101E0000016852F8211051F04001036842F8231094
:101E10005FF02041026801EB82014A6812F0404203
:101E2000416B0B68416B496853EA0113416B896848
:101E300053EA0123416BC96853EA0143416B0969C5
:101E400053EA0153416B496953EA0163416B896964
:101E50000B431A435FF02041036801EB83014A60A2
:101E6000C16AB1F5804F1DD1DFF87820016852F8C2
:101E70002130DFF878100B40816B0C68816B49686A
:101E800054EA0114816B896854EA0124816BC968A2
:101E900054EA0144816B89690C432343006842F88A
:101EA000203006E07FF07041DFF83820006842F80B
:101EB000201010BC7047C9B2002908D05FF0204143
:101EC00051F8202052F0010241F8202008E05FF094
:101ED000204252F82030DFF818100B4042F8203032
:101EE00070470000040100A08000F7FF0000F0CF61
:101EF000FEFF0F0038B50400002504E04FF47A70AF
:101F000000F008F86D1C2800210080B289B28842D8
:101F1000F4D331BD81B080B206214843009002E085
:101F20000098401E009000980028F9D101B0704739
:101F300000000000000000000000000000000000A1
:101F400000001E1010101010000000000000F01023
:101F5000101010101010101010101E0000000000C3
:101F6000101010101010F0000000000010101010E1
:101F70001010101010101010000000000000FE00E3
:101F80000000000000000000387C7C7C380000006D
:101F9000FEFEFEFEC6828282C6FEFEFE000000003D
:101FA0003844444438000000FEFEFEFEC6BABABA09
:101FB000C6FEFEFE000E060A0A10304848483000F1
:101FC000003844443810107C101010000010181C09
:101FD000161212121470600000063A22263A2222CB
:101FE000266660000010543828286C2838541000E9
:101FF000101010101010FE10101010100002060E1D
:102000001E3E7E3E1E0E0602103854101010101098
:1020100010543810002828282828282800282800AC
:102020003E4A4A4A4A3A0A0A0A0A0A0A1010101094
:102030001010FE0000000000000000000000FE1074
:1020400010101010101010101010F01010101010B0
:102050001038541010101010101010101010101014
:1020600010101E10101010100000000008047E0454
:10207000080000000000000010207E20100000007A
:102080000000000000000000000000000000000050
:102090000000000000000000000000000000000040
:1020A0000000000000000000000000000000000030
:1020B00000000000000000000000000000101010F0
:1020C0001010101000101000002828000000000060
:1020D00000000000001212127E2424FC4848480030
:1020E00010385450503814141454381000225254DC
:1020F000280810142A2A4400001824242810284AEA
:1021000044443A00001010000000000000000000ED
:102110000810102020202020201010082010100867
:1021200008080808081010200000000010107C109B
:10213000280000000000000010107C1010000000BB
:10214000000000000000000000101020000000004F
:1021500000007E0000000000000000000000000001
:102160000010100002020404080810102020404053
:10217000003C42424242424242423C000010301087
:102180001010101010101000003C424202041820E1
:1021900040407E00003C4242021C020242423C009F
:1021A000000C0C14142424447E040400007E4040DF
:1021B000407C420202423C00003C4240407C4242A1
:1021C00042423C00007E4242040404080808080021
:1021D000003C4242423C424242423C00003C4242BD
:1021E00042423E0202423C00000000180000000093
:1021F000180000000000001800000000180810007F
:102200000000000608304030080600000000000012
:102210007E00007E0000000000000060100C020C38
:102220001060000000384444040810100010100032
:10223000001C224E525252525E403C0000101010C0
:102240002828283844444400007C4242427C4242D0
:1022500042427C00003C42424040404042423C00FE
:10226000007844424242424242447800007E40406C
:10227000407E404040407E00007E4040407C4040E8
:1022800040404000003C424240404E4242463A00FC
:1022900000424242427E424242424200001010103E
:1022A00010101010101010000004040404040404A2
:1022B0004444380000424448506060504844420062
:1022C000004040404040404040407E000044446C5C
:1022D0006C6C545454444400004444646454544C5E
:1022E0004C44440000182442424242424224180016
:1022F000007C424242427C4040404000003C42421E
:1023000042424242524A3C02007C424242427C42A9
:1023100042424200003C424240300C0242423C00F9
:10232000007C1010101010101010100000424242DB
:102330004242424242423C0000444444442828284D
:1023400010101000005454545454547C2828280071
:1023500000444428281010282844440000444444E1
:102360004428281010101000007E020404081010E9
:1023700020407E00181010101010101010101018AF
:1023800000545454FE54545438282800301010106F
:102390001010101010101030001028440000000021
:1023A00000000000000000000000000000007E00AF
:1023B00000201000000000000000000000000000ED
:1023C0003844043C44443A0000404040784444448B
:1023D0004444780000000000384440404044380045
:1023E000000404043C44444444443C000000000015
:1023F0003844447C40443800000810103810101055
:1024000010101000000000003C4444443C044438D8
:1024100000404040784444444444440000101000CC
:1024200010101010101010000010100010101010DC
:102430001010106000404040444850605048440034
:1024400000101010101010101010100000000000EC
:1024500068545454545454000000000078444444D8
:1024600044444400000000003844444444443800DC
:1024700000000000784444444478404000000000DC
:102480003C444444443C0404000000002C30202020
:102490002020200000000000384440380444380068
:1024A00000002020782020202020180000000000BC
:1024B0004444444444443C00000000004444442854
:1024C00028101000000000005454545438282800EC
:1024D000000000004444281028444400000000008C
:1024E0004444442828101060000000007C040810B8
:1024F00020407C0008101010106010101010100800
:1025000010101010101010101010101020101010BB
:10251000100C1010101010200000000000324C00B1
:102520000000000000007C444444444444447C00D7
:10253000000000000000000000000000000000009B
:102540001C101010000000000000F01010101010FF
:10255000101010101C000000101010101010F000CF
:1025600000001010101010101010101000000000CB
:102570000000FC0000000000003078787830000097
:10258000FCFCFCCC848484CCFCFC0000003048487B
:1025900048300000FCFCFCCCB4B4B4CCFCFC001C07
:1025A0000C0C1410304848300038444438107C106B
:1025B0001010002030382C2424206060000C342CB3
:1025C0003424242C6C6000545428286C282854543B
:1025D000101010101010FC10101000040C1C3C7C8B
:1025E0003C1C0C0410381010101010103810282843
:1025F00028282828280028283C545454341414141B
:102600001414101010101010FC0000000000000046
:102610000000FC101010101010101010F01010100E
:102620001038101010101010101010101010101082
:102630001C10101000000000087C080000000000C2
:102640000000207C200000000000000000000000CE
:10265000000000000000000000000000000000007A
:10266000000000000000000000000000000000006A
:1026700000000000000000000000101010101010FA
:1026800010001010282800000000000000001414A2
:102690007C282828FC5050501038545030181414FE
:1026A0005438245458281010283454483048484886
:1026B000305448484834101000000000000000006A
:1026C00008101020202020202010201010080808BA
:1026D0000808081000000010107C102800000000FE
:1026E0000010107C1010000000000000000000002E
:1026F000101000000000007C00000000000000003E
:1027000000000000101004040808101020204040B1
:1027100038444444444444444438103010101010A9
:10272000101010103844440408102040407C3844F5
:102730004404180404444438081818282848487CDD
:1027400008087C4040407844040444383844404001
:102750007844444444387C44440408081010101061
:102760003844444438444444443838444444443C61
:102770000404443800001010000000101000000095
:102780001010000000101020000004083040300835
:102790000400000000007C007C00000000004020DD
:1027A0001804182040003844440408101000101089
:1027B00018244C545454545C4038101010282828C5
:1027C0007C44444478444444784444444478384401
:1027D00044404040404444387844444444444444A1
:1027E00044787C4040407C404040407C7C404040BD
:1027F000784040404040384444405C4444444C3479
:10280000444444447C444444444410101010101088
:1028100010101010080808080808084848304448F4
:10282000485060505048484440404040404040403C
:10283000407C44446C6C6C5454544444444464643C
:1028400054544C4C44443844444444444444443830
:1028500078444444447840404040384444444444EC
:1028600044445438784444444478484444443844C4
:1028700044201008044444387C101010101010102C
:10288000101044444444444444444438444444447C
:1028900028282810101054545454545454282828CC
:1028A0004444282810102828444444444428282814
:1028B000101010107C04080810102020407C3020DC
:1028C0002020202020202020545454FC54545428EC
:1028D0002828301010101010101010103048000070
:1028E00000000000000000000000000000000000E8
:1028F00020100000000000000000000000304838F8
:1029000048484834404040784444444444780000B7
:1029100000384440404044380404043C44444444A7
:10292000443C0000003844447C404438102020706F
:102930002020202020200000003C4444443C04444B
:102940004040407844444444444410100010101067
:102950001010101010100010101010101010404027
:10296000404448506050484400101010101010109F
:10297000101000000068545454545454000000785F
:1029800044444444444400000038444444444438EB
:10299000000000784444444478400000003C444433
:1029A00044443C040000002C302020202020000063
:1029B000003844403804443800202078202020206B
:1029C00020180000004444444444443C00000044B7
:1029D0004444282810100000005454545438282827
:1029E00000000044442810284444000000444444AB
:1029F000282810100000007C04081020407C0810DB
:102A00001010106010101010101010101010101076
:102A1000101040202020201820202020000000003E
:102A20000034480000000078484848484848487842
:102A300080B53C48016851F4700101603A4908686A
:102A400050F0010008600020384A10600A683848D9
:102A500002400A603748384A1060086830F4802025
:102A6000086000203549086000F005F85FF000605C
:102A70003349086001BD82B0002001900020009021
:102A80002949086850F480300860086810F4003064
:102A900000900198401C01900098002803D10198F3
:102AA000B0F5A04FF1D10868800302D50120009055
:102AB00001E000200090009801282FD121480268F1
:102AC00052F0805202602048026852F44042026094
:102AD000164802680260026852F40042026002680E
:102AE00052F4A0520260194A134B1A600A6852F05D
:102AF00080720A600A689201FCD540F20571144A9E
:102B000011600168890889000160016851F00201C3
:102B10000160016811F00C010829FAD102B0704778
:102B20000000000088ED00E0003802400838024054
:102B3000FFFFF6FE10300024043802400C3802403B
:102B400008ED00E040380240007000401954400792
:102B5000003C024030B4002513E050F8042BD307AA
:102B600044BFA9F101039A18091F042942F8045B24
:102B7000FAD213468C0744BF15809B1CC90748BF77
:102B80001D7050F8041B0029E7D130BC704730B4E9
:102B900050F8041B79B10268436802440830DC072E
:102BA00044BFA9F10104E31852F8045B43F8045B45
:102BB000091FF9D1ECE730BC7047000010B5074998
:102BC00079441831064C7C44163404E00A68081D28
:102BD000114488470146A142F8D110BD54000000BD
:102BE0007400000005000000050000000500000062
:102BF000050000003025000806000A000A00000059
:102C0000301F000808000C000C0000004EF6885130
:102C1000CEF20001086840F470000860BFF34F8FE7
:102C2000BFF36F8F4FF00070E1EE100A70470000A5
:102C300025FFFFFFB8010000280000200000000071
:102C40004FFFFFFF280000009CFFFFFF0000002057
:102C50000000000000F00DF8002801D0FFF7AEFFE3
:102C6000AFF300800020AFF30080FDF78DFA00F095
:102C700002F80120704700F001B80000074638460E
:102C800000F002F8FBE7000080B5AFF30080024AD5
:102C900011001820ABBEFBE7260002000148804768
:102CA00001480047312A0008B92C00084D656368C7
:102CB000612D4F4D4F4B0000AFF30080FFF7A6FF93
:102CC000FFF7C8FF28202C2029000000FFF7FEBFD7
:102CD000FFF7FEBFFFF7FEBFFFF7FEBFFFF7FEBF28
:102CE000FFF7FEBFFFF7FEBFFFF7FEBFFFF7FEBF18
:102CF000FFF7FEBFFFF7FEBFFFF7FEBFFFF7FEBF08
:102D0000FFF7FEBFFFF7FEBFFFF7FEBFFFF7FEBFF7
:102D1000FFF7FEBFFFF7FEBFFFF7FEBFFFF7FEBFE7
:102D2000FFF7FEBFFFF7FEBFFFF7FEBFFFF7FEBFD7
:102D3000FFF7FEBFFFF7FEBFFFF7FEBFFFF7FEBFC7
:102D4000FFF7FEBFFFF7FEBFFFF7FEBFFFF7FEBFB7
:102D5000FFF7FEBFFFF7FEBFFFF7FEBFFFF7FEBFA7
:102D6000FFF7FEBFFFF7FEBFFFF7FEBFFFF7FEBF97
:102D7000FFF7FEBFFFF7FEBFFFF7FEBFFFF7FEBF87
:102D8000FFF7FEBFFFF7FEBFFFF7FEBFFFF7FEBF77
:102D9000FFF7FEBFFFF7FEBFFFF7FEBFFFF7FEBF67
:102DA000FFF7FEBFFFF7FEBFFFF7FEBFFFF7FEBF57
:102DB000FFF7FEBFFFF7FEBFFFF7FEBFFFF7FEBF47
:102DC000FFF7FEBFFFF7FEBFFFF7FEBFFFF7FEBF37
:102DD000FFF7FEBFFFF7FEBFFFF7FEBFFFF7FEBF27
:102DE000FFF7FEBFFFF7FEBFFFF7FEBFFFF7FEBF17
:102DF000FFF7FEBFFFF7FEBFFFF7FEBFFFF7FEBF07
:102E0000FFF7FEBFFFF7FEBFFFF7FEBFFFF7FEBFF6
:102E1000FFF7FEBFFFF7FEBFFFF7FEBFFFF7FEBFE6
:0C2E2000FFF7FEBFFFF7FEBFFFF7FEBF8D
:0400000508002CB90A
:00000001FF
